:100000000C9437000C945C060C945C060C945C0613
:100010000C945C060C945C060C945C060C945C06D8
:100020000C945C060C945C060C945C060C945C06C8
:100030000C945C060C945C060C945C060C945C06B8
:100040000C945C060C945C060C945C060C945C06A8
:100050000C945C060C945C060C945C060C945C0698
:100060000C945C060C945C060100010A80001124CB
:100070001FBECFEFD8E0DEBFCDBFE8E6F0E040E046
:1000800017C0B591A59135912591059107FD0CC03B
:1000900095918591EF01F92FE82F05900D92A21708
:1000A000B307D9F7FE0104C01D92A217B307E1F709
:1000B000ED36F40731F70E9461000C941706F894AE
:0200C000FFCF70
:1000C2000F931F93CF93DF93CDB7DEB7AE970FB6E3
:1000D200F894DEBF0FBECDBF0E94140280E090E014
:1000E200AAEFB3E48D839E83AF83B88720E030E02C
:1000F2004AE755E46D817E818F8198850E9455067D
:10010200DC01CB018DA39EA3AFA3B8A720E030E012
:1001120040E85FE36DA17EA18FA198A50E944B06E6
:1001220088232CF481E090E09AA789A73FC020E0C1
:100132003FEF4FE757E46DA17EA18FA198A50E94E2
:10014200500618164CF520E030E040E251E46D8193
:100152007E818F8198850E945506DC01CB01BC010E
:10016200CD010E945D05DC01CB019AA789A70FC0D2
:1001720080E991E09CA78BA78BA59CA50197F1F73D
:100182009CA78BA789A59AA501979AA789A789A554
:100192009AA5892B69F714C06DA17EA18FA198A59C
:1001A2000E945D05DC01CB019AA789A789A59AA5C2
:1001B2009EA78DA78DA59EA50197F1F79EA78DA756
:1001C2000E94210280E090E0AAEFB3E489879A8737
:1001D200AB87BC8720E030E04AE755E469857A8541
:1001E2008B859C850E945506DC01CB018B8F9C8FF1
:1001F200AD8FBE8F20E030E040E85FE36B8D7C8DF9
:100202008D8D9E8D0E944B0688232CF481E090E018
:1002120098A38F8F3FC020E03FEF4FE757E46B8DED
:100222007C8D8D8D9E8D0E94500618164CF520E017
:1002320030E040E251E469857A858B859C850E9495
:100242005506DC01CB01BC01CD010E945D05DC013C
:10025200CB0198A38F8F0FC080E991E09AA389A365
:1002620089A19AA10197F1F79AA389A38F8D98A1E9
:10027200019798A38F8F8F8D98A1892B69F714C04E
:100282006B8D7C8D8D8D9E8D0E945D05DC01CB0179
:1002920098A38F8F8F8D98A19CA38BA38BA19CA1D8
:1002A2000197F1F79CA38BA30E94260280E090E0C5
:1002B200AAEFB3E48D879E87AF87B88B20E030E04A
:1002C2004AE755E46D857E858F8598890E9455069B
:1002D200DC01CB01898B9A8BAB8BBC8B20E030E0AD
:1002E20040E85FE369897A898B899C890E944B0681
:1002F20088232CF481E090E09E8B8D8B3FC020E020
:100302003FEF4FE757E469897A898B899C890E947C
:10031200500618164CF520E030E040E251E46D85BD
:100322007E858F8598890E945506DC01CB01BC0130
:10033200CD010E945D05DC01CB019E8B8D8B0FC030
:1003420080E991E0988F8F8B8F89988D0197F1F7D3
:10035200988F8F8B8D899E8901979E8B8D8B8D892E
:100362009E89892B69F714C069897A898B899C894E
:100372000E945D05DC01CB019E8B8D8B8D899E8950
:100382009A8F898F898D9A8D0197F1F79A8F898F2C
:100392000E942A024FEF6FEF8FEF0E94960488EEC1
:1003A2009EEF9A83898381E090E09C838B830E94F5
:1003B2000B068B819C81092E000CAA0BBB0BBC0186
:1003C200CD010E94F2048B019C0189819A81AC01CA
:1003D200C901B8010E943D0389819A8105969A83D9
:1003E20089832B813C8148E7429FC001439F900D46
:1003F20011249C0120563F4F89819A812817390781
:10040200C4F68B819C8101969C838B832B813C81DA
:1004120048E84203C001439F900D1124805A91097C
:060422009A838983C6CF16
:10042800579ABB24259A239A229A219A209A5524CE
:10043800299A2898000000000895289A11E00E943F
:100448000C03089511E10E940C03089510EC0E941A
:100458000C0313E20E94080311EC0E940C0310E144
:100468000E94080315EC0E940C031EE30E94080377
:1004780018E20E94080316E30E940C0318E80E9481
:1004880008031AE30E940C0315E50E94080311EB08
:100498000E940C0310E00E9408031FE10E94080359
:1004A80013E10E940C0319E20E940C035F9A08955D
:1004B8001AE20E940C03109100010E940803109197
:1004C80001010E940803109100010E940803109185
:1004D800010113950E9408031BE20E940C0310916E
:1004E80004010E940803109105010E9408031F3FA0
:1004F80051F41091040113950E94080310E00E9422
:1005080008030C949002109104010E9408031091B2
:10051800050113950E9408031CE20E940C03109128
:1005280008010E940803109109010E940803089518
:100538001AE20E940C0310E00E94080310E00E94D7
:10054800080310E00E9408031FEE0E9408031BE244
:100558000E940C0310E00E94080310E00E940803A8
:1005680011E00E9408031FE30E9408031CE20E9496
:100578000C0320EF30EA42E0109108010E940803C2
:10058800109109010E9408034A95B1F73A9599F725
:100598002A9581F708951AE20E940C031091000130
:1005A8000E940803109101010E94080310910201A2
:1005B8000E940803109103010AE0100F0E9408032B
:1005C8001BE20E940C03109104010E940803109181
:1005D80005010E940803109106010E94080310916A
:1005E80007010AE0100F0E9408031CE20E940C0396
:1005F80024E6109108010E940803109109010E9445
:1006080008032A95B1F708955F9A0E941003089588
:100618005F980E941003089508E02B9817FD2B9A05
:100628000E943A032B9816FD2B9A0E943A032B98A6
:1006380015FD2B9A0E943A032B9814FD2B9A0E94C1
:100648003A032B9813FD2B9A0E943A032B9812FD1C
:100658002B9A0E943A032B9811FD2B9A0E943A0379
:100668002B9810FD2B9A0E943A0308952D9A2D98E5
:020678000895E3
:10067A00CF92DF92EF92FF92CF93DF93CDB7DEB79F
:10068A002A970FB6F894DEBF0FBECDBF6D837E8367
:10069A008F8398875A87498788E89FEF9A83898347
:1006AA005BC089819A81092E000CAA0BBB0BBC0185
:1006BA00CD010E94F204DC01CB012D813E814F81E4
:1006CA005885BC01CD010E945506DC01CB016C01A5
:1006DA007D0189859A85092E000CAA0BBB0BBC01EA
:1006EA00CD010E94F204DC01CB019C01AD01C701DE
:1006FA00B6010E942306DC01CB01BC01CD010E9498
:10070A002906DC01CB019C838B8320EA30E08B81B4
:10071A009C81A901481B590BCA019923C4F020EAFC
:10072A0030E08B819C81A901481B590BCA01803496
:10073A0091406CF420EA30E08B819C81281B390BB4
:10074A0089819A8188589F4FB9010E942D05898114
:10075A009A8101969A83898389819A81883791053A
:10076A000CF49FCF00002A960FB6F894DEBF0FBE96
:10077A00CDBFDF91CF91FF90EF90DF90CF9008959A
:10078A000FC00E94300638F00E94370620F09523E9
:10079A0011F00C9445060C94590611240C943F064A
:1007AA000E94B00570F3959FC1F3950F50E0551F55
:1007BA00629FF001729FBB27F00DB11D639FAA27AC
:1007CA00F00DB11DAA1F649F6627B00DA11D661FFB
:1007DA00829F2227B00DA11D621F739FB00DA11D1C
:1007EA00621F839FA00D611D221F749F3327A00DD6
:1007FA00611D231F849F600D211D822F762F6A2F72
:10080A0011249F5750409AF0F1F088234AF0EE0FD6
:10081A00FF1FBB1F661F771F881F91505040A9F703
:10082A009E3F510580F00C9445060C943F065F3FAD
:10083A00E4F3983ED4F3869577956795B795F7953F
:10084A00E7959F5FC1F7FE2B880F911D96958795B7
:04085A0097F908956D
:10085E0011C00E94300638F00E94370620F039F49D
:10086E009F3F19F426F40C9459060EF4E095E7FB1D
:10087E000C944506E92F0E94B00558F3BA1762078B
:10088E0073078407950720F079F4A6F50C943E06BD
:10089E000EF4E0950B2EBA2FA02D0B01B90190018D
:1008AE000C01CA01A0011124FF27591B99F0593FD1
:1008BE0050F4503E68F11A16F040A22F232F342F19
:1008CE004427585FF3CF469537952795A795F04067
:1008DE005395C9F77EF41F16BA0B620B730B840B7C
:1008EE00BAF09150A1F0FF0FBB1F661F771F881F34
:1008FE00C2F70EC0BA0F621F731F841F48F487958C
:10090E0077956795B795F7959E3F08F0B0CF93957D
:0E091E00880F08F09927EE0F9795879508959A
:10092C00CF93DF9300D00F92CDB7DEB789836A8364
:10093C004B838981882F90E02FE1289FA001299F6C
:10094C00500D11242FEF30E0CA01B9010E94D205DD
:10095C00CB0189838A81882F90E02FE3289FA00107
:10096C00299F500D11242FEF30E0CA01B9010E94CC
:10097C00D205CB018A838B81882F90E02FE1289FB1
:10098C00A001299F500D11242FEF30E0CA01B901AD
:10099C000E94D205CB018B838981982F990F990FD7
:1009AC00990F8A81869586958695890F8093080183
:1009BC008A81982F9295990F907E8B81890F8093C5
:1009CC0009010E949C0200000F900F900F90DF9184
:0409DC00CF9108951A
:1009E000E89409C097FB3EF49095809570956195C9
:1009F0007F4F8F4F9F4F9923A9F0F92F96E9BB277F
:100A00009395F695879577956795B795F111F8CFFA
:100A1000FAF4BB0F11F460FF1BC06F5F7F4F8F4F65
:100A20009F4F16C0882311F096E911C0772321F05B
:100A30009EE8872F762F05C0662371F096E8862FF3
:100A400070E060E02AF09A95660F771F881FDAF74A
:0A0A5000880F9695879597F9089591
:100A5A00CF93DF9300D000D0CDB7DEB79A838983D6
:100A6A007C836B8389819A81992314F481509F4FE7
:100A7A00892F990F990B8093000189818093010135
:100A8A008B819C81992314F481509F4F892F990F50
:100A9A00990B809304018B81809305010E945C026B
:100AAA0000000F900F900F900F90DF91CF91089553
:100ABA000E94B80588F09F5798F0B92F9927B75127
:100ACA00B0F0E1F0660F771F881F991F1AF0BA95E8
:100ADA00C9F714C0B13091F00E943E06B1E0089502
:100AEA000C943E06672F782F8827B85F39F0B93FF4
:100AFA00CCF3869577956795B395D9F73EF490959B
:0E0B0A008095709561957F4F8F4F9F4F089596
:100B1800990F0008550FAA0BE0E8FEEF1616170606
:100B2800E807F907C0F012161306E407F50798F06E
:100B3800621B730B840B950B39F40A2661F0232B87
:100B4800242B252B21F408950A2609F4A140A69503
:080B58008FEF811D811D08953E
:100B600057FD9058440F551F59F05F3F71F047955E
:100B7000880F97FB991F61F09F3F79F08795089543
:100B8000121613061406551FF2CF4695F1DF08C062
:100B9000161617061806991FF1CF8695710561057F
:040BA0000894089518
:100BA40097FB072E16F4009407D077FD09D00E9416
:100BB400E60507FC05D03EF4909581959F4F089576
:080BC400709561957F4F0895C3
:100BCC00AA1BBB1B51E107C0AA1FBB1FA617B70767
:100BDC0010F0A61BB70B881F991F5A95A9F7809583
:080BEC009095BC01CD010895B4
:100BF400092E0394000C11F4882352F0BB0F40F427
:100C0400BF2B11F460FF04C06F5F7F4F8F4F9F4F66
:020C1400089541
:100C1600CF93DF93CDB7DEB710920801109209018A
:080C26000000DF91CF91089559
:100C2E00EC010E9461060E946006CE010E946206DF
:060C3E00CE010E945E06DB
:0E0C44005058BB27AA270E942F040C94FA05D3
:0E0C52000E945D056894B1110C943F06089550
:0E0C600000240A9416161706180609060895B1
:0E0C6E0000240A9412161306140605060895B3
:0E0C7C00E894BB2766277727CB0197F90895E8
:0C0C8A0097F99F6780E870E060E0089533
:0A0C96000E948C0508F481E0089527
:0A0CA0000E948C0508F48FEF089500
:080CAA000E94C5030C94FA0539
:060CB2009FEF80EC0895A5
:040CB8000C94000098
:040CBC000E945F0033
:020CC000089595
:020CC200089593
:020CC400089591
:00000001FF
