:100000000C9437000C9490060C9490060C94900677
:100010000C9490060C9490060C9490060C94900608
:100020000C9490060C9490060C9490060C949006F8
:100030000C9490060C9490060C9490060C949006E8
:100040000C9490060C9490060C9490060C949006D8
:100050000C9490060C9490060C9490060C949006C8
:100060000C9490060C9490060100010A8000112463
:100070001FBECFEFD8E0DEBFCDBFE8E6F0E040E046
:1000800017C0B591A59135912591059107FD0CC03B
:1000900095918591EF01F92FE82F05900D92A21708
:1000A000B307D9F7FE0104C01D92A217B307E1F709
:1000B000ED36F40731F70E9461000C944B06F8947A
:0200C000FFCF70
:1000C200CF93DF93CDB7DEB7EA970FB6F894DEBFD2
:1000D2000FBECDBF0E94550280E090E0AAEFB3E4CC
:1000E2008F839887A987BA8720E030E44CE955E4EA
:1000F2006F81788589859A850E948906DC01CB010A
:100102008FA398A7A9A7BAA720E030E040E85FE351
:100112006FA178A589A59AA50E947F0688232CF451
:1001220081E090E09CA78BA73FC020E03FEF4FE724
:1001320057E46FA178A589A59AA50E94840618168E
:100142004CF520E030E040E251E46F81788589850A
:100152009A850E948906DC01CB01BC01CD010E9477
:100162009105DC01CB019CA78BA70FC084EF91E026
:100172009EA78DA78DA59EA50197F1F79EA78DA796
:100182008BA59CA501979CA78BA78BA59CA5892BCA
:1001920069F714C06FA178A589A59AA50E94910557
:1001A200DC01CB019CA78BA78BA59CA598AB8FA745
:1001B2008FA598A90197F1F798AB8FA70E946202C9
:1001C20080E090E0AAEFB3E48B879C87AD87BE877F
:1001D20020E030E44CE955E46B857C858D859E8575
:1001E2000E948906DC01CB018D8F9E8FAF8FB8A351
:1001F20020E030E040E85FE36D8D7E8D8F8D98A129
:100202000E947F0688232CF481E090E09AA389A3C0
:100212003FC020E03FEF4FE757E46D8D7E8D8F8D1D
:1002220098A10E94840618164CF520E030E040E2C6
:1002320051E46B857C858D859E850E948906DC0153
:10024200CB01BC01CD010E949105DC01CB019AA337
:1002520089A30FC084EF91E09CA38BA38BA19CA1E7
:100262000197F1F79CA38BA389A19AA101979AA365
:1002720089A389A19AA1892B69F714C06D8D7E8DFE
:100282008F8D98A10E949105DC01CB019AA389A3CD
:1002920089A19AA19EA38DA38DA19EA10197F1F799
:1002A2009EA38DA30E94670280E090E0AAEFB3E4D0
:1002B2008F87988BA98BBA8B20E030E44CE955E408
:1002C2006F85788989899A890E948906DC01CB0128
:1002D2008B8B9C8BAD8BBE8B20E030E040E85FE3E4
:1002E2006B897C898D899E890E947F0688232CF4E4
:1002F20081E090E0988F8F8B3FC020E03FEF4FE787
:1003020057E46B897C898D899E890E948406181620
:100312004CF520E030E040E251E46F85788989892C
:100322009A890E948906DC01CB01BC01CD010E94A1
:100332009105DC01CB01988F8F8B0FC084EF91E088
:100342009A8F898F898D9A8D0197F1F79A8F898F6C
:100352008F89988D0197988F8F8B8F89988D892B94
:1003620069F714C06B897C898D899E890E949105E9
:10037200DC01CB01988F8F8B8F89988D9C8F8B8F0F
:100382008B8D9C8D0197F1F79C8F8B8F0E946B0256
:100392004FEF6FEF8FEF0E94CA048CEE9FEF9A83AC
:1003A20089830E943F0689819A81AC0160E070E0F6
:1003B20080E89FE30E94710389819A8101969A8362
:1003C200898380E090E0A8E4B2E48B839C83AD83D0
:1003D200BE8320E030E44CE955E46B817C818D8161
:1003E2009E810E948906DC01CB0189AB9AABABAB43
:1003F200BCAB20E030E040E85FE369A97AA98BA9B1
:100402009CA90E947F0688232CF481E090E09EAB99
:100412008DAB3FC020E03FEF4FE757E469A97AA9CF
:100422008BA99CA90E94840618164CF520E030E0A6
:1004320040E251E46B817C818D819E810E9489061C
:10044200DC01CB01BC01CD010E949105DC01CB0195
:100452009EAB8DAB0FC084EF91E098AF8FAB8FA9AD
:1004620098AD0197F1F798AF8FAB8DA99EA901972F
:100472009EAB8DAB8DA99EA9892B69F714C069A982
:100482007AA98BA99CA90E949105DC01CB019EABA4
:100492008DAB8DA99EA99AAF89AF89AD9AAD01970F
:0804A200F1F79AAF89AF7DCF9D
:1004AA00579ABB24259A239A229A219A209A55244C
:1004BA00299A2898000000000895289A11E00E94BD
:1004CA004103089511E10E944103089510EC0E942E
:1004DA00410313E20E943D0311EC0E94410310E123
:1004EA000E943D0315EC0E9441031EE30E943D0356
:1004FA0018E20E943D0316E30E94410318E80E9495
:10050A003D031AE30E94410315E50E943D0311EBE6
:10051A000E94410310E00E943D031FE10E943D0337
:10052A0013E10E94410319E20E9441035F9A089570
:10053A001AE20E944103109100010E943D031091AA
:10054A0001010E943D03109100010E943D03109198
:10055A00010113950E943D031BE20E944103109181
:10056A0004010E943D03109105010E943D03109170
:10057A0004010E943D031091050113950E943D0359
:10058A001CE20E944103109108010E943D03109150
:10059A0009010E943D0308951AE20E94410310E0F6
:1005AA000E943D0310E00E943D0310E00E943D03BB
:1005BA001FEE0E943D031BE20E94410310E00E94CD
:1005CA003D0310E00E943D0311E00E943D031FE33A
:1005DA000E943D031CE20E94410320EF30EA42E000
:1005EA00109108010E943D03109109010E943D03E8
:1005FA004A95B1F73A9599F72A9581F708951AE23B
:10060A000E944103109100010E943D0310910101D3
:10061A000E943D03109102010E943D0310910301C3
:10062A000AE0100F0E943D031BE20E944103109151
:10063A0004010E943D03109105010E943D0310919F
:10064A0006010E943D03109107010AE0100F0E9463
:10065A003D031CE20E94410324E6109108010E9416
:10066A003D03109109010E943D032A95B1F70895AF
:10067A005F9A0E94450308955F980E944503089572
:10068A002B9817FF2B9A0E946E032B9816FF2B9A12
:10069A000E946E032B9815FF2B9A0E946E032B98CB
:1006AA0014FF2B9A0E946E032B9813FF2B9A0E9419
:1006BA006E032B9812FF2B9A0E946E032B9811FF40
:1006CA002B9A0E946E032B9810FF2B9A0E946E039E
:0806DA0008952D9A2D98089552
:1006E200CF92DF92EF92FF92CF93DF93CDB7DEB737
:1006F2002A970FB6F894DEBF0FBECDBF6D837E83FF
:100702008F8398875A87498788E89FEF9A838983DE
:100712005BC089819A81092E000CAA0BBB0BBC011C
:10072200CD010E942605DC01CB012D813E814F8146
:100732005885BC01CD010E948906DC01CB016C0108
:100742007D0189859A85092E000CAA0BBB0BBC0181
:10075200CD010E942605DC01CB019C01AD01C70140
:10076200B6010E945706DC01CB01BC01CD010E94FB
:100772005D06DC01CB019C838B8324EB30E08B8113
:100782009C81A901481B590BCA019923C4F024EB8F
:1007920030E08B819C81A901481B590BCA01883624
:1007A20091406CF424EB30E08B819C81281B390B47
:1007B20089819A8188589F4FB9010E946105898178
:1007C2009A8101969A83898389819A8188379105D2
:1007D2000CF49FCF00002A960FB6F894DEBF0FBE2E
:1007E200CDBFDF91CF91FF90EF90DF90CF90089532
:1007F2000FC00E94640638F00E946B0620F0952319
:1008020011F00C9479060C948D0611240C94730645
:100812000E94E40570F3959FC1F3950F50E0551FB8
:10082200629FF001729FBB27F00DB11D639FAA2743
:10083200F00DB11DAA1F649F6627B00DA11D661F92
:10084200829F2227B00DA11D621F739FB00DA11DB3
:10085200621F839FA00D611D221F749F3327A00D6D
:10086200611D231F849F600D211D822F762F6A2F09
:1008720011249F5750409AF0F1F088234AF0EE0F6E
:10088200FF1FBB1F661F771F881F91505040A9F79B
:100892009E3F510580F00C9479060C9473065F3FDD
:1008A200E4F3983ED4F3869577956795B795F795D7
:1008B200E7959F5FC1F7FE2B880F911D969587954F
:0408C20097F9089505
:1008C60011C00E94640638F00E946B0620F039F4CD
:1008D6009F3F19F426F40C948D060EF4E095E7FB81
:1008E6000C947906E92F0E94E40558F3BA176207BB
:1008F60073078407950720F079F4A6F50C94720621
:100906000EF4E0950B2EBA2FA02D0B01B901900124
:100916000C01CA01A0011124FF27591B99F0593F68
:1009260050F4503E68F11A16F040A22F232F342FB0
:100936004427585FF3CF469537952795A795F040FE
:100946005395C9F77EF41F16BA0B620B730B840B13
:10095600BAF09150A1F0FF0FBB1F661F771F881FCB
:10096600C2F70EC0BA0F621F731F841F48F4879523
:1009760077956795B795F7959E3F08F0B0CF939515
:0E098600880F08F09927EE0F97958795089532
:10099400CF93DF9300D00F92CDB7DEB789836A83FC
:1009A4004B838981882F90E02FE1289FA001299F04
:1009B400500D11242FEF30E0CA01B9010E94060640
:1009C400CB0189838A81882F90E02FE3289FA0019F
:1009D400299F500D11242FEF30E0CA01B9010E9464
:1009E4000606CB018A838B81882F90E02FE1289F14
:1009F400A001299F500D11242FEF30E0CA01B90145
:100A04000E940606CB018B838981982F990F990F39
:100A1400990F8A81869586958695890F809308011A
:100A24008A81982F9295990F907E8B81890F80935C
:100A340009010E94D10200000F900F900F90DF91E6
:040A4400CF910895B1
:100A4800E89409C097FB3EF4909580957095619560
:100A58007F4F8F4F9F4F9923A9F0F92F96E9BB2716
:100A68009395F695879577956795B795F111F8CF92
:100A7800FAF4BB0F11F460FF1BC06F5F7F4F8F4FFD
:100A88009F4F16C0882311F096E911C0772321F0F3
:100A98009EE8872F762F05C0662371F096E8862F8B
:100AA80070E060E02AF09A95660F771F881FDAF7E2
:0A0AB800880F9695879597F9089529
:100AC200CF93DF9300D000D0CDB7DEB79A8389836E
:100AD2007C836B8389819A81992314F481509F4F7F
:100AE200892F990F990B80930001898180930101CD
:100AF2008B819C81992314F481509F4F892F990FE8
:100B0200990B809304018B81809305010E949D02C1
:100B120000000F900F900F900F90DF91CF910895EA
:100B22000E94EC0588F09F5798F0B92F9927B7518A
:100B3200B0F0E1F0660F771F881F991F1AF0BA957F
:100B4200C9F714C0B13091F00E947206B1E0089565
:100B52000C947206672F782F8827B85F39F0B93F57
:100B6200CCF3869577956795B395D9F73EF4909532
:0E0B72008095709561957F4F8F4F9F4F08952E
:100B8000990F0008550FAA0BE0E8FEEF161617069E
:100B9000E807F907C0F012161306E407F50798F006
:100BA000621B730B840B950B39F40A2661F0232B1F
:100BB000242B252B21F408950A2609F4A140A6959B
:080BC0008FEF811D811D0895D6
:100BC80057FD9058440F551F59F05F3F71F04795F6
:100BD800880F97FB991F61F09F3F79F087950895DB
:100BE800121613061406551FF2CF4695F1DF08C0FA
:100BF800161617061806991FF1CF86957105610517
:040C080008940895AF
:100C0C0097FB072E16F4009407D077FD09D00E94AD
:100C1C001A0607FC05D03EF4909581959F4F0895D8
:080C2C00709561957F4F08955A
:100C3400AA1BBB1B51E107C0AA1FBB1FA617B707FE
:100C440010F0A61BB70B881F991F5A95A9F780951A
:080C54009095BC01CD0108954B
:100C5C00092E0394000C11F4882352F0BB0F40F4BE
:100C6C00BF2B11F460FF04C06F5F7F4F8F4F9F4FFE
:020C7C000895D9
:100C7E00CF93DF93CDB7DEB7109208011092090122
:080C8E000000DF91CF910895F1
:100C9600EC010E9495060E949406CE010E949606DB
:060CA600CE010E9492063F
:0E0CAC005058BB27AA270E9463040C942E0602
:0E0CBA000E9491056894B1110C947306089580
:0E0CC80000240A941616170618060906089549
:0E0CD60000240A94121613061406050608954B
:0E0CE400E894BB2766277727CB0197F9089580
:0C0CF20097F99F6780E870E060E00895CB
:0A0CFE000E94C00508F481E008958B
:0A0D08000E94C00508F48FEF089563
:080D12000E94F9030C942E0667
:060D1A009FEF80EC08953C
:040D20000C9400002F
:040D24000E945F00CA
:020D280008952C
:020D2A0008952A
:020D2C00089528
:00000001FF
