:100000000C9449000C941D140C941D140C941D1494
:100010000C941D140C941D140C941D140C941D149C
:100020000C941D140C941D140C941D140C941D148C
:100030000C941D140C941D140C941D140C941D147C
:100040000C941D140C941D140C941D140C941D146C
:100050000C941D140C941D140C941D140C941D145C
:100060000C941D140C941D14010001028001020166
:10007000A000284801A001E08001E001FD0028E681
:1000800001FD020F80020F0215002903021502274D
:10009000800011241FBECFEFD8E0DEBFCDBFE8E661
:1000A000F0E040E017C0B591A591359125910591FB
:1000B00007FD0CC095918591EF01F92FE82F059070
:1000C0000D92A217B307D9F7FE0104C01D92A21723
:1000D000B307E1F7E139F40731F70E9471020C949C
:0600E000CE13F894FFCFDF
:1000E600AEE0B0E0E9E7F0E00C94FF124C016B01E2
:1000F6001A8219828FEF9FEF9C838B831E821D824B
:1001060058874F833A872987A12CB12CD6016D9049
:100116007C90F301EA0DFB1D808181110FC0D60191
:10012600ED93FC938081853209F0D3C13F01BFEF87
:100136006B1A7B0AF6017182608219C0853279F3E7
:10014600B401082E000C990B0E94280F4FEFA41A39
:10015600B40ADCCF8C32ACF08D32F9F489819A8105
:1001660081609A8389833196D601ED93FC93D601FB
:10017600ED91FC9180818B3269F789819A81846047
:10018600F0CF803221F489819A818860EACF833268
:1001960051F489819A818061E4CF803321F4898189
:1001A6009A818260DECFB701C6010E946B119E83E1
:1001B6008D8397FF0BC029813A81B1E02B273A83C3
:1001C60029839195819591099E838D8389819A8151
:1001D60080FF03C08D7F9A838983D601ED91FC91C0
:1001E600119780818E3249F43196ED93FC93B701D5
:1001F600C6010E946B119C838B83C6010E94A112CB
:10020600582ED601ED91FC918081082E000C990B99
:100216000E94E213893609F443C084F4833609F454
:1002260002C134F4853209F427C18136E1F030C1C8
:100236008436B1F188360CF4D9C02AC1803709F466
:100246009AC03CF48E3609F4BCC08F3609F461C0FE
:100256001FC1853709F440C0883709F476C0833753
:1002660009F016C1F3C0652D70E0A701CE010B960B
:100276000E940000892B09F426C1D601ED91FC915C
:100286001197CF0101968D939C932081AE01455F16
:100296005F4FBE016F5F7F4FC4010E94000010C117
:1002A600652D70E0970141E050E0CE010B960E946B
:1002B600950B892B09F407C1F6018081918101967E
:1002C60091838083AE01455F5F4FBE016F5F7F4FB5
:1002D600C4010E94510AF4C0652D70E0970140E008
:1002E60050E0CE010B960E94950B892B09F4EBC0CA
:1002F600D6018D919C91119701968D939C93AE0199
:10030600455F5F4FBE016F5F7F4FC4010E94740F50
:10031600D7C0652D70E0970140E050E0CE010B9606
:100326000E94950B892B09F4CEC0F601808191813C
:10033600019691838083AE01455F5F4FBE016F5F7B
:100346007F4FC4010E94D60DBBC0652D70E097019A
:1003560040E050E0CE010B960E94950B892B09F4E4
:10036600B2C0D601ED91FC911197CF0101968D9304
:100376009C9320811CC0970140E050E060EF70E044
:10038600CE010B960E94950B892B09F49CC0F601B1
:10039600808191810196918380838B859C85892BB1
:1003A60029F420E030E04FE052E084C028E7AE01B7
:1003B600455F5F4FBE016F5F7F4FC4010E945C06C1
:1003C6007FC0A501400F511F652D70E09701CE013A
:1003D6000B960E940000892B09F475C0D6018D91F9
:1003E6009C91119701968D939C9373C0652D70E037
:1003F600A701CE010B960E940000892B09F463C069
:10040600D601ED91FC911197CF0101968D939C93A6
:100416002081AE01455F5F4FBE016F5F7F4FC40114
:100426000E9400004DC0B0E85B124DC0F60180810D
:100436009181019691838083D701ED91FC9111976B
:10044600CF0102968D939C93808120C0B0E85B1209
:100456003AC0F60180819181019691838083D7010C
:10046600ED91FC911197CF0102968D939C9340815B
:10047600518120E030E01EC0B0E85B1224C0F601D6
:10048600208131812F5F3F4F318320838B870DC0C1
:1004960085E28B87D6016D927C921A8219821E8222
:1004A6001D828FEF9FEF9C838B8321E030E0AE01AE
:1004B600455F5F4FBE016F5F7F4FC4010E94C5114C
:1004C6008A0D9B1D07C0F60180819181019691835B
:0C04D6008083C5012E96EFE00C943613D5
:1004E200CF92EF920F93CF93DF93CDB7DEB7AA9758
:1004F2000FB6F894DEBF0FBECDBF0E94500510921A
:100502000A021092090210920C0210920B0210922F
:100512000E0210920D020E947C0D0E94270480E0C0
:1005220090E0AAEFB3E489839A83AB83BC8320E093
:1005320030E04AE755E469817A818B819C810E948F
:100542001614DC01CB0189A39AA3ABA3BCA320E0C0
:1005520030E040E85FE369A17AA18BA19CA10E94EF
:100562000C1488232CF481E090E09EA38DA33FC05D
:1005720020E03FEF4FE757E469A17AA18BA19CA14C
:100582000E94111418164CF520E030E040E251E4CC
:1005920069817A818B819C810E941614DC01CB01D6
:1005A200BC01CD010E943C11DC01CB019EA38DA3B5
:1005B2000FC080E991E098A78FA38FA198A501971A
:1005C200F1F798A78FA38DA19EA101979EA38DA35A
:1005D2008DA19EA1892B69F714C069A17AA18BA173
:1005E2009CA10E943C11DC01CB019EA38DA38DA195
:1005F2009EA19AA789A789A59AA50197F1F79AA71B
:1006020089A70E94340480E090E0AAEFB3E48D83CE
:100612009E83AF83B88720E030E04AE755E46D81DE
:100622007E818F8198850E941614DC01CB018F8B0D
:10063200988FA98FBA8F20E030E040E85FE36F899E
:10064200788D898D9A8D0E940C1488232CF481E078
:1006520090E09C8F8B8F3FC020E03FEF4FE757E445
:100662006F89788D898D9A8D0E94111418164CF518
:1006720020E030E040E251E46D817E818F819885F7
:100682000E941614DC01CB01BC01CD010E943C1179
:10069200DC01CB019C8F8B8F0FC080E991E09E8F94
:1006A2008D8F8D8D9E8D0197F1F79E8F8D8F8B8D06
:1006B2009C8D01979C8F8B8F8B8D9C8D892B69F7DD
:1006C20014C06F89788D898D9A8D0E943C11DC014E
:1006D200CB019C8F8B8F8B8D9C8D98A38F8F8F8D51
:1006E20098A10197F1F798A38F8F0E94390480E0B7
:1006F20090E0AAEFB3E489879A87AB87BC8720E0B2
:1007020030E04AE755E469857A858B859C850E94AD
:100712001614DC01CB018D879E87AF87B88B20E052
:1007220030E040E85FE36D857E858F8598890E9481
:100732000C1488232CF481E090E09A8B898B3FC0C3
:1007420020E03FEF4FE757E46D857E858F859889DE
:100752000E94111418164CF520E030E040E251E4FA
:1007620069857A858B859C850E941614DC01CB01F4
:10077200BC01CD010E943C11DC01CB019A8B898B1B
:100782000FC080E991E09C8B8B8B8B899C890197B0
:10079200F1F79C8B8B8B89899A8901979A8B898B2C
:1007A20089899A89892B69F714C06D857E858F8521
:1007B20098890E943C11DC01CB019A8B898B898933
:1007C2009A899E8B8D8B8D899E890197F1F79E8BDD
:1007D2008D8B0E943D044FEF6FEF8FEF0E94220D31
:1007E2000E947C0D4091070250910802209105025F
:1007F200309106028091030290910402B9010E9495
:10080200D40960911502709116028091170290919D
:100812001802CC24CA94EE24EA940FEF20E030E0D0
:1008220040E050E00E94620C609115027091160245
:100832008091170290911802C12CE12C0FEF20E059
:0C08420030E040E050E00E94620CCACFA1
:10084E00579ABB24259A239A229A219A209A5524A4
:10085E00299A2898000000000895289A11E00E9415
:10086E001F05089511E10E941F05089510EC0E94C6
:10087E001F0513E20E941B0511EC0E941F0510E1DB
:10088E000E941B0515EC0E941F051EE30E941B050E
:10089E0018E20E941B0516E30E941F0518E80E942D
:1008AE001B051AE30E941F0515E50E941B0511EB9F
:1008BE000E941F0510E00E941B051FE10E941B05F0
:1008CE0013E10E941F0519E20E941F055F9A089509
:1008DE001AE20E941F0510911D020E941B05109125
:1008EE001E020E941B0510911D020E941B051091F5
:1008FE001E0213950E941B051BE20E941F051091FC
:10090E0021020E941B05109122020E941B051F3F0F
:10091E0051F41091210213950E941B0510E00E94C4
:10092E001B050C94A304109121020E941B0510912B
:10093E00220213950E941B051CE20E941F051091B6
:10094E0025020E941B05109126020E941B05089588
:10095E001AE20E941F0510E00E941B0510E00E9483
:10096E001B0510E00E941B051FEE0E941B051BE2DB
:10097E000E941F0510E00E941B0510E00E941B053F
:10098E0011E00E941B051FE30E941B051CE20E9442
:10099E001F0520EF30EA42E0109125020E941B0550
:1009AE00109126020E941B054A95B1F73A9599F7C8
:1009BE002A9581F708951AE20E941F0510911D02D3
:1009CE000E941B0510911E020E941B0510911F0212
:1009DE000E941B05109120020AE0100F0E941B05B9
:1009EE001BE20E941F05109121020E941B0510910F
:1009FE0022020E941B05109123020E941B051091DA
:100A0E0024020AE0100F0E941B051CE20E941F0523
:100A1E0024E6109125020E941B05109126020E94C9
:100A2E001B052A95B1F708955F9A0E942305089534
:100A3E005F980E942305089508E02B9817FD2B9AC6
:100A4E000E944D052B9816FD2B9A0E944D052B9852
:100A5E0015FD2B9A0E944D052B9814FD2B9A0E9482
:100A6E004D052B9813FD2B9A0E944D052B9812FDC8
:100A7E002B9A0E944D052B9811FD2B9A0E944D0525
:100A8E002B9810FD2B9A0E944D0508952D9A2D98A6
:020A9E000895B9
:100AA000CF93DF93CDB7DEB76C970FB6F894DEBF68
:100AB0000FBECDBF80E090E0AAE7B4E489839A83BB
:100AC000AB83BC8320E030E04AE755E469817A815A
:100AD0008B819C810E941614DC01CB018B8B9C8B3B
:100AE000AD8BBE8B20E030E040E85FE36B897C8912
:100AF0008D899E890E940C1488232CF481E090E05B
:100B0000988F8F8B3FC020E03FEF4FE757E46B8912
:100B10007C898D899E890E94111418164CF520E05D
:100B200030E040E251E469817A818B819C810E94AE
:100B30001614DC01CB01BC01CD010E943C11DC018B
:100B4000CB01988F8F8B0FC080E991E09A8F898FAE
:100B5000898D9A8D0197F1F79A8F898F8F89988D5A
:100B60000197988F8F8B8F89988D892B69F714C087
:100B70006B897C898D899E890E943C11DC01CB01A7
:100B8000988F8F8B8F89988D9C8F8B8F8B8D9C8D61
:100B90000197F1F79C8F8B8F87E690E00E941512EA
:100BA00083E491E00E94991161E082E00E94870E47
:100BB0000E94EF116BE172E08DEF91E00E94FC0763
:100BC00080E090E0A8E4B2E48D839E83AF83B88791
:100BD00020E030E04AE755E46D817E818F81988581
:100BE0000E941614DC01CB0189879A87AB87BC87EA
:100BF00020E030E040E85FE369857A858B859C855D
:100C00000E940C1488232CF481E090E09E878D874D
:100C10003FC020E03FEF4FE757E469857A858B8539
:100C20009C850E94111418164CF520E030E040E23B
:100C300051E46D817E818F8198850E941614DC01BC
:100C4000CB01BC01CD010E943C11DC01CB019E8790
:100C50008D870FC080E991E0988B8F878F85988969
:100C60000197F1F7988B8F878D859E8501979E87D9
:100C70008D878D859E85892B69F714C069857A8556
:100C80008B859C850E943C11DC01CB019E878D8762
:100C90008D859E859A8B898B89899A890197F1F731
:100CA0009A8B898B00006C960FB6F894DEBF0FBE4E
:080CB000CDBFDF91CF91089543
:100CB800AFE0B0E0E2E6F6E00C94FC121C016B0138
:100CC8005A8349832B83FB01828193818480958099
:100CD80000811181A680B78097FD02C00D7F02C0F8
:100CE80081E090E0E981FA814080518062807380E0
:100CF8009801207133273D832C83740104FF08C0B9
:100D0800411451046104710419F032E0E31AF10846
:100D1800F801E870FF27FF83EE8303FF03C0F1E0CB
:100D2800EF1AF108F6010084F185E02D3197FF876D
:100D3800EE87EA0DFB1D10829C012E193F093987A9
:100D48002887C801827099279B878A87EB818E2F15
:100D5800EE0F990B9C01215431093D872C872E8574
:100D68003F852230310530F48C819D81892B09F033
:100D780042C05CC0411451046104710461F18E8564
:100D88009F8501979F878E87C2018F7099278A3028
:100D9800910514F4C09602C0895A9F4FEC85FD85D1
:100DA8007A9748F49C012062215631092A3131058D
:100DB80010F40E94D913EE85FF85EA0DFB1D808390
:100DC800F1E0EF1AF10884E0769467945794479419
:100DD8008A95D1F7C4CF888599858E0D9F1D1816E1
:100DE80019066CF21E141F040CF0BECFEA85FB85B1
:100DF800EF2B29F6B9CFE981FA8180819181A2810F
:100E0800B381892B8A2B8B2B89F0EE85FF85EA0D20
:100E1800FB1D31972B8120838E859F8502979F87A5
:100E28008E87FC01EA0DFB1D80E38083EE81FF8144
:100E3800EF2B59F02E853F85215031093F872E87AA
:100E4800F901EA0DFB1D80E28083F601408551859A
:100E5800415051092E853F85421B530BB9016A0D3C
:100E68007B1D9401C1010E946D109C01F1018081DC
:100E7800918190FF06C0F6018281938182179307C2
:0C0E88000CF4C9012F96E2E10C94331326
:100E94000F931F93CF93DF93CDB7DEB766970FB64B
:100EA400F894DEBF0FBECDBF988B8F87698B4A8BBA
:100EB4003C8B2B8B1E8B0D8B8F8598892989FC018C
:100EC40020838F85988901962A89FC01208380E0FC
:100ED40090E0A0E2B1E489839A83AB83BC8320E0F1
:100EE40030E04AE755E469817A818B819C810E94D4
:100EF4001614DC01CB018D839E83AF83B88720E079
:100F040030E040E85FE36D817E818F8198850E94A7
:100F14000C1488232CF481E090E09A8789873FC0E1
:100F240020E03FEF4FE757E46D817E818F81988504
:100F34000E94111418164CF520E030E040E251E410
:100F440069817A818B819C810E941614DC01CB011A
:100F5400BC01CD010E943C11DC01CB019A87898739
:100F64000FC080E991E09C878B878B859C850197D6
:100F7400F1F79C878B8789859A8501979A8789875A
:100F840089859A85892B69F714C06D817E818F814B
:100F940098850E943C11DC01CB019A878987898559
:100FA4009A859E878D878D859E850197F1F79E870B
:100FB4008D878F85988920E042E0BC0188E20E94F9
:100FC400C60C9C018D899E89FC01318320832B8969
:100FD4003C898D899E89B9010E94C11200006696E0
:100FE4000FB6F894DEBF0FBECDBFDF91CF911F9136
:040FF4000F910895BC
:100FF800CF93DF93CDB7DEB762970FB6F894DEBF15
:101008000FBECDBF988B8F877A8B698B8F85988918
:101018002DE3FC0120838F859889019628E0FC0147
:1010280020838F85988920E042E0BC0188E20E94F5
:10103800C60C9C0189899A89FC013183208389899E
:101048009A896FE071E00E94C11280E090E0A0EE02
:10105800B0E489839A83AB83BC8320E030E04AE71D
:1010680055E469817A818B819C810E941614DC0188
:10107800CB018D839E83AF83B88720E030E040E8C2
:101088005FE36D817E818F8198850E940C1488238F
:101098002CF481E090E09A8789873FC020E03FEFF9
:1010A8004FE757E46D817E818F8198850E941114E6
:1010B80018164CF520E030E040E251E469817A816D
:1010C8008B819C810E941614DC01CB01BC01CD01EF
:1010D8000E943C11DC01CB019A8789870FC080E907
:1010E80091E09C878B878B859C850197F1F79C877E
:1010F8008B8789859A8501979A87898789859A85B3
:10110800892B69F714C06D817E818F8198850E9433
:101118003C11DC01CB019A87898789859A859E874E
:101128008D878D859E850197F1F79E878D870000B5
:1011380062960FB6F894DEBF0FBECDBFDF91CF9198
:02114800089508
:10114A00CF93DF93CDB7DEB762970FB6F894DEBFC1
:10115A000FBECDBF988B8F877A8B698B8F859889C5
:10116A002DE3FC0120838F8598890196FC0110826A
:10117A008F85988920E042E0BC0188E20E94C60C73
:10118A009C0189899A89FC013183208389899A89FA
:10119A0062E071E00E94C11280E090E0A0EAB1E44E
:1011AA0089839A83AB83BC8320E030E04AE755E425
:1011BA0069817A818B819C810E941614DC01CB01A2
:1011CA008D839E83AF83B88720E030E040E85FE3F9
:1011DA006D817E818F8198850E940C1488232CF45E
:1011EA0081E090E09A8789873FC020E03FEF4FE790
:1011FA0057E46D817E818F8198850E94111418169B
:10120A004CF520E030E040E251E469817A818B813B
:10121A009C810E941614DC01CB01BC01CD010E9405
:10122A003C11DC01CB019A8789870FC080E991E0E4
:10123A009C878B878B859C850197F1F79C878B8789
:10124A0089859A8501979A87898789859A85892BBD
:10125A0069F714C06D817E818F8198850E943C1147
:10126A00DC01CB019A87898789859A859E878D8734
:10127A008D859E850197F1F79E878D87000062967E
:10128A000FB6F894DEBF0FBECDBFDF91CF910895A0
:10129A00CF93DF9300D000D000D0CDB7DEB79A83CA
:1012AA0089837C836B835E834D8389819A812AE15A
:1012BA00FC01208389819A8120E041E0BC0188E217
:1012CA000E94C60C9C018D819E81FC013183208382
:1012DA008D819E8169E171E00E94C11289819A81A2
:1012EA0046E0BC0188E20E942D0B9C018D819E8103
:1012FA00FC01318320838D819E8166E271E00E9428
:10130A00C11289819A810196FC018081882F90E01F
:10131A00382F222789819A81FC018081882F90E0C9
:10132A00282B392B8B819C81FC0131832083898175
:10133A009A810396FC018081882F90E0382F22271A
:10134A0089819A810296FC018081882F90E0282B5E
:10135A00392B8B819C81FC013383228389819A8179
:10136A000596FC018081882F90E0382F22278981F9
:10137A009A810496FC018081882F90E0282B392BD2
:10138A008B819C81FC0135832483000026960FB64D
:0E139A00F894DEBF0FBECDBFDF91CF91089556
:1013A800CF93DF9300D000D000D0CDB7DEB79A83BB
:1013B80089837C836B835E834D8389819A81885777
:1013C8009C4E092E000CAA0BBB0BBC01CD010E9440
:1013D800BD0FDC01CB0126EA3BE944EC5CE3BC0130
:1013E800CD010E941614DC01CB01BC01CD010E9485
:1013F800EA13DC01CB0190931602809315028B81CE
:101408009C81865A9F4F092E000CAA0BBB0BBC016E
:10141800CD010E94BD0FDC01CB0129E33EE843E684
:1014280050E4BC01CD010E941614DC01CB01BC01C3
:10143800CD010E94EA13DC01CB019093180280933E
:1014480017028D819E8188579C4E092E000CAA0B8D
:10145800BB0BBC01CD010E94BD0FDC01CB012CEB05
:1014680034E743E15DE3BC01CD010E941614DC01C1
:10147800CB01BC01CD010E94EA13DC01CB019093A2
:101488001A0280931902000026960FB6F894DEBF60
:0A1498000FBECDBFDF91CF91089584
:1014A200A2E0B0E0E7E5FAE00C94FC123C016B012B
:1014B200FB0122813381A480B580808191819A834E
:1014C200898386809780FA01208031804280538010
:1014D200B201A10157FE07C044275527BA0142199C
:1014E20053096409750937FD03C08D7F9A83898387
:1014F200950157FC05C0898182FD02C083FF02C0AD
:1015020021503109CE0101967C010AE010E0C601AA
:101512000E94FD0B57FC03C0298122FF0AC00197DC
:10152200F401E80FF91F57FC02C02BE209C02DE2BB
:1015320007C023FF06C00197F401E80FF91F20E25C
:10154200208309811A81F601408551854150510954
:10155200481B590BB401680F791F9501C3010E9402
:101562006D109C01F3018081918190FF06C0F6010C
:1015720082819381821793070CF4C9012296E2E1DA
:041582000C9433137F
:101586000FC00E94F11338F00E94F81320F0952343
:1015960011F00C9406140C941A1411240C940014D3
:1015A6000E945D1270F3959FC1F3950F50E0551F91
:1015B600629FF001729FBB27F00DB11D639FAA27A2
:1015C600F00DB11DAA1F649F6627B00DA11D661FF1
:1015D600829F2227B00DA11D621F739FB00DA11D12
:1015E600621F839FA00D611D221F749F3327A00DCC
:1015F600611D231F849F600D211D822F762F6A2F68
:1016060011249F5750409AF0F1F088234AF0EE0FCC
:10161600FF1FBB1F661F771F881F91505040A9F7F9
:101626009E3F510580F00C9406140C9400145F3F05
:10163600E4F3983ED4F3869577956795B795F79535
:10164600E7959F5FC1F7FE2B880F911D96958795AD
:0416560097F9089563
:10165A000F931F93CF93DF93CDB7DEB728970FB6BB
:10166A00F894DEBF0FBECDBF8D837F836E8348871C
:10167A000E94DA109C838B838B819C81892B19F0C1
:10168A008B819C8142C08D81882F90E0880F991FA1
:10169A0081600E94F80F9C838B838B819C81892BAC
:1016AA0019F08B819C8131C01A82198211C08981FB
:1016BA009A812E813F818901080F191F81E00E94BA
:1016CA00DA0EF801808389819A8101969A83898347
:1016DA008885882F90E09C012150310989819A815F
:1016EA008217930724F38885882F90E001972E812B
:1016FA003F818901080F191F80E00E94DA0EF80164
:10170A0080830E94C11380E090E028960FB6F89477
:10171A00DEBF0FBECDBFDF91CF911F910F9108950C
:10172A00CF93DF93DC01F90168387105F1F05CF4BD
:10173A006138710561F164387105A1F1603871058C
:10174A0009F051C02FC0603C710509F441C0603FE7
:10175A007105F1F1603A710509F045C0C081D18186
:10176A00CE0102969183808325C0C081D181CE01AA
:10177A00029691838083452B39F04881042E000C10
:10178A00550B660B770B1CC0488150E029C0C081FD
:10179A00D181CE01049691838083488159816A81DF
:1017AA007B810EC0C081D181CE0102969183808354
:1017BA00452BA1F048815981052E000C660B770B49
:1017CA004D935D936D937C93139781E090E00DC0E8
:1017DA00C081D181CE01029691838083488159814B
:1017EA0060E070E0EDCF80E090E0DF91CF91089566
:1017FA00A0E0B0E0E3E0FCE00C94FE12DC0128017A
:10180A001696AD90BC901797F70180819181129638
:10181A00ED91FC9113971896CD91DC911997219728
:10182A00F7FF02C0E1E0F0E0CA0DDB1D1882690192
:10183A00A1E0B0E08F01021B130B4C01F2E08F22F2
:10184A009924052C000C66087708CE018A199B0991
:10185A00CA15DB0519F1411551056105710589F0B4
:10186A00CB01BA01A30192010E947F12CA01A62FDD
:10187A00B72F605D6A9341E0C41AD108A901BC017F
:10188A00E4CF98012C0D3D1D121613064CF31C14BF
:10189A001D0434F48114910419F702C080E090E029
:1018AA00AB2B31F4F701208131812F7E31832083E4
:0A18BA00CDB7DEB7E0E10C94351362
:1018C400CF92EF920F93CF93DF93CDB7DEB72B97E1
:1018D4000FB6F894DEBF0FBECDBF9A8389837C8395
:1018E4006B835E834D8338872F830987EA86CB8693
:1018F40089819A81992314F481509F4F892F990FDC
:10190400990B80931D02898180931E028B819C8197
:10191400992314F481509F4F892F990F990B809329
:1019240021028B818093220289819A81992314F464
:1019340081509F4F892F990F990B80931F028981A2
:10194400809320028B819C81992314F481509F4FB2
:10195400892F990F990B809323028B818093240202
:101964004B856A8589850E942F0E0E94E20400003F
:101974002B960FB6F894DEBF0FBECDBFDF91CF918B
:081984000F91EF90CF90089540
:10198C00CF93DF93CDB7DEB729970FB6F894DEBFB0
:10199C000FBECDBF8D837F836E83488729870E94BE
:1019AC00DA109C838B838B819C81892B19F08B8122
:1019BC009C8139C08D81880F0E94F80F9C838B838A
:1019CC008B819C81892B19F08B819C812CC01A8274
:1019DC00198218C089819A812E813F81820F931FB1
:1019EC00FC0180810E940C119C838B838B819C81D8
:1019FC00892B19F08B819C8116C089819A81019663
:101A0C009A8389838885282F30E089819A8182176F
:101A1C00930704F3998581E08927882311F00E94AC
:101A2C00C11380E090E029960FB6F894DEBF0FBE8C
:081A3C00CDBFDF91CF910895A9
:101A4400CF93DF9300D00F92CDB7DEB789836A833B
:101A54004B838981882F90E02FE1289FA001299F43
:101A6400500D11242FEF30E0CA01B9010E94661312
:101A7400CB0189838A81882F90E02FE3289FA001DE
:101A8400299F500D11242FEF30E0CA01B9010E94A3
:101A94006613CB018A838B81882F90E02FE1289FE6
:101AA400A001299F500D11242FEF30E0CA01B90184
:101AB4000E946613CB018B838981982F990F990F0C
:101AC400990F8A81869586958695890F809325023C
:101AD4008A81982F9295990F907E8B81890F80939C
:101AE40026020E94AF0400000F900F900F90DF9128
:041AF400CF910895F1
:101AF800CF93DF93CDB7DEB74BE152E063E072E0FE
:101B08008DEF91E00E944D09209107023091080263
:101B180080910D0290910E02B901680F791F2091F2
:101B280005023091060280910B0290910C02A901E6
:101B3800480F591F20910302309104028091090235
:101B480090910A02820F931F272F2F93262F2F93EE
:101B5800252F2F93242F2F93292F2F938F938CE8A2
:101B680091E0892F8F938CE891E08F931F9280E406
:101B78008F9380EA91E0892F8F9380EA91E08F9389
:101B88000E948E138DB79EB70C960FB6F894DEBFE1
:101B98000FBECDBF80EA91E00E9499110000DF914D
:041BA800CF9108953C
:101BAC00A2E0B0E0ECEDFDE00C9400134C016B01F5
:101BBC00FB012281338164807580808191819A83BD
:101BCC008983A680B78037FD03C08D7F9A83898374
:101BDC00FA014081518162817381CE0101967C01B1
:101BEC0008E010E09301C6010E94FD0B298124FF3F
:101BFC0006C00197F501E80FF91F20E32083298126
:101C0C0023FF06C00197F501E80FF91F20E220839E
:101C1C0009811A81F6014085518541505109481BB3
:101C2C00590BB501680F791F9301C4010E946D1007
:101C3C009C01F4018081918190FF06C0F6018281A4
:101C4C009381821793070CF4C9012296EEE00C9451
:021C5C0037133C
:101C5E00CF93DF9300D00F92CDB7DEB789836A831F
:101C6E004B838981882F90E02FE1289FA001299F27
:101C7E00500D11242FEF30E0CA01B9010E946613F6
:101C8E00CB0189838A81882F90E02FE3289FA001C2
:101C9E00299F500D11242FEF30E0CA01B9010E9487
:101CAE006613CB018A838B81882F90E02FE1289FCA
:101CBE00A001299F500D11242FEF30E0CA01B90168
:101CCE000E946613CB018B838981982F990F990FF0
:101CDE00990F8A81869586958695890F8093250220
:101CEE008A81982F9295990F907E8B81890F809380
:101CFE00260200000F900F900F90DF91CF91089564
:101D0E00CF93DF9300D0CDB7DEB789836A8387E2A6
:101D1E0090E027E230E0F90120812063FC0120836E
:101D2E008A81882351F088E290E028E230E0F901C0
:101D3E0020812063FC01208309C088E290E028E224
:101D4E0030E0F90120812F7CFC01208387E290E0B6
:101D5E0027E230E0F90120812F7CFC01208389816C
:101D6E00882F90E08130910561F08230910579F0F5
:101D7E00892B09F012C088EB90E028E4FC01208347
:101D8E000CC088EB90E028E1FC01208306C088EBB4
:101D9E0090E02CE0FC012083000000000F900F90DB
:061DAE00DF91CF910895C2
:101DB400CF93DF9300D0CDB7DEB78A838A8188239F
:101DC400E9F08CEB90E024ECFC01208300008CEB28
:101DD40090E0FC0180818823D4F789EB90E0FC013A
:101DE4008081882F90E0887F99278035910519F1AB
:101DF40089EB90E0FC018081887F23C08CEB90E02C
:101E040024E8FC01208300008CEB90E0FC0180813D
:101E14008823D4F789EB90E0FC018081882F90E03F
:101E2400887F99278835910531F089EB90E0FC0192
:101E34008081887F06C08BEB90E0FC0180818983E0
:0C1E440089810F900F90DF91CF910895DD
:101E50000F931F93CF93DF93DB01109719F48FEF4C
:101E60009FEF3DC02D913C91119730FF25C01696F4
:101E70004D915C91179714962D913C9115974217AF
:101E8000530778F41296ED91FC9113978083129684
:101E90002D913C9113972F5F3F4F13963C932E93B8
:101EA000129716962D913C9117972F5F3F4F1796DB
:101EB0003C932E93169713C01C96ED91FC911D97A1
:101EC000309769F2EB01092F182F0995892B39F604
:101ED0008E819F8101969F838E83812F902FDF912A
:081EE000CF911F910F910895AD
:101EE800A2E0B0E0EAE7FFE00C9400135C016B01AC
:101EF800FB012281338184809580808191819A833E
:101F080089836680778037FD03C08D7F9A838983B4
:101F1800FA014081518162817381CE0101967C0171
:101F28000AE010E09401C6010E94FD0B09811A81A4
:101F3800F6014085518541505109481B590BB301A1
:101F4800680F791F9401C5010E946D109C01F5016D
:101F58008081918190FF06C0F6018281938182176A
:0E1F680093070CF4C9012296EEE00C94371397
:101F7600E89409C097FB3EF490958095709561951D
:101F86007F4F8F4F9F4F9923A9F0F92F96E9BB27D3
:101F96009395F695879577956795B795F111F8CF4F
:101FA600FAF4BB0F11F460FF1BC06F5F7F4F8F4FBA
:101FB6009F4F16C0882311F096E911C0772321F0B0
:101FC6009EE8872F762F05C0662371F096E8862F48
:101FD60070E060E02AF09A95660F771F881FDAF79F
:0A1FE600880F9695879597F90895E6
:101FF000CF93DF930F92CDB7DEB789838BEB90E061
:102000002981FC0120838CEB90E024E8FC012083F3
:1020100000008CEB90E0FC0180818823D4F789EBF1
:1020200090E0FC018081882F90E0887F9927489775
:10203000A1F089EB90E0FC018081882F90E0887FFF
:1020400099278034910549F089EB90E0FC0180816B
:10205000882F90E0887F992702C080E090E00F9061
:06206000DF91CF9108950D
:10206600A0E1B0E0E9E3F0E10C940813FB01BA014A
:10207600AE014F5F5F4F7A0140E1D7011D924A954D
:10208600E9F742E051E05A8349839C838B83F7FF4B
:1020960009C08FE490E090930101809300018FEFD7
:1020A6009FEF14C0A9018C013197FE83ED83C70110
:1020B6000E944E134F8158852D813E81421753074A
:1020C60008F49A01F801E20FF31F10826096E6E029
:0420D6000C943F1314
:1020DA00A0E0B0E0E3E7F0E10C9402136C015B01CD
:1020EA007A01E901480181E08822992400FD03C0B0
:1020FA004217530750F0A701B501C6010E94DF122B
:10210A00EC16FD0610F0C70117C08E010E191F0943
:10211A000115110541F0B60180E290E00E94280FF6
:10212A0001501109F5CF8114910429F4A701B501D1
:10213A00C6010E94DF12CE01CDB7DEB7ECE00C94E7
:02214A00391347
:10214C00A2E8B0E0ECEAF0E10C9402135C014A0165
:10215C007A836983C12CD12CE981FA81808188230F
:10216C00E9F07401860120E830E0AE014D5F5F4F6D
:10217C00BE016F5F7F4FC5010E9473008C0D9D1DCA
:10218C008C159D054CF48FE490E0909301018093A5
:10219C0000018FEF9FEF03C06C01DECFC601CE575D
:0821AC00DF4FECE00C94391345
:1021B400CF93DF93CDB7DEB78CEB90E024EAFC013C
:1021C400208300008CEB90E0FC0180818823D4F70D
:1021D40089EB90E0FC018081882F90E0887F99272B
:1021E400089799F089EB90E0FC018081882F90E0BA
:1021F400887F9927409749F089EB90E0FC01808122
:10220400882F90E0887F992702C080E090E0DF91DA
:04221400CF910895C9
:10221800CF93DF930F92CDB7DEB789838BEB90E036
:102228002981FC0120838CEB90E024E8FC012083C9
:1022380000008CEB90E0FC0180818823D4F789EBC7
:1022480090E0FC018081882F90E0887F992788970B
:1022580049F089EB90E0FC018081882F90E0887F2D
:10226800992702C080E090E00F90DF91CF91089508
:102278000E94651288F09F5798F0B92F9927B75197
:10228800B0F0E1F0660F771F881F991F1AF0BA9512
:10229800C9F714C0B13091F00E94FF13B1E008955E
:1022A8000C94FF13672F782F8827B85F39F0B93F50
:1022B800CCF3869577956795B395D9F73EF49095C5
:0E22C8008095709561957F4F8F4F9F4F0895C1
:1022D600DC01ED91FC91119780818A3221F080E03A
:1022E60090E03AE00EC03196ED93FC93DB01ED9160
:1022F600FC911197CF0102968D939C9380819181D9
:102306000895ED91FC911197208120532A3068F4AD
:10231600389FA001399F500D1124CA01820F911DCB
:0C23260031961196FC93EE93ECCF0895D5
:10233200CF93DF9300D000D0CDB7DEB79C838B83E1
:102342001A8219820FC02B813C8189819A81820F66
:10235200931FFC0180810E94181389819A81019642
:102362009A8389838B819C810E94B3139C0189810A
:102372009A818217930738F300000F900F900F9005
:082382000F90DF91CF91089547
:10238A00A0E0B0E0EBECF1E10C9404137C01FB015A
:10239A00EA01C901A280B380C480D580008111817D
:1023AA00209711F4C6EFD1E0009719F4CE010E94EC
:1023BA00B313B7FC04C0A816B90608F4C501960100
:1023CA00AC01BE01C7010E946D10CDB7DEB7EAE0CD
:0423DA000C943B1311
:1023DE000F931F93CF93DF93CDB7DEB70BE112E0D0
:1023EE002FE231E040E06EE38DEF91E00E944A076C
:1023FE006BE172E08DEF91E00E94A5080BE112E017
:10240E0028E331E040E06BE38DEF91E00E944A0754
:0C241E000000DF91CF911F910F910895F5
:10242A00CF93DF9300D0CDB7DEB79A83898385EC4B
:10243A0090E029813A81232F3327FC01208384EC01
:10244A0090E02981FC01208381EC90E028E1FC01E5
:10245A00208382EC90E02EE0FC01208300000F90A4
:08246A000F90DF91CF9108955E
:10247200990F0008550FAA0BE0E8FEEF1616170693
:10248200E807F907C0F012161306E407F50798F0FB
:10249200621B730B840B950B39F40A2661F0232B14
:1024A200242B252B21F408950A2609F4A140A69590
:0824B2008FEF811D811D0895CB
:1024BA0057FD9058440F551F59F05F3F71F04795EB
:1024CA00880F97FB991F61F09F3F79F087950895D0
:1024DA00121613061406551FF2CF4695F1DF08C0EF
:1024EA00161617061806991FF1CF8695710561050C
:0424FA0008940895A5
:1024FE00A1E21A2EAA1BBB1BFD010DC0AA1FBB1FFA
:10250E00EE1FFF1FA217B307E407F50720F0A21B6B
:10251E00B30BE40BF50B661F771F881F991F1A94D8
:10252E0069F760957095809590959B01AC01BD0102
:04253E00CF0108952C
:10254200CF93DF93EC0190E0E92FF0E0EE0FFF1F55
:10255200E052FE4F8081811102C081810EC0A881AC
:10256200B9812C91821305C091811196B983A883F8
:1025720001C09F5F9B3040F3892FDF91CF91089577
:10258200CF93DF9300D000D0CDB7DEB79A83898393
:102592007C836B8389819A81FC0180819181892B63
:1025A20029F08B819C810E949911FFCF00000F902E
:0C25B2000F900F900F90DF91CF910895D3
:1025BE00A0E0B0E0E5EEF2E10C9406136C01EB0145
:1025CE008A017B01E40EF51ECE15DF0541F08991DF
:1025DE00B601082E000C990B0E94280FF5CFC801EA
:0A25EE00CDB7DEB7E8E00C943D1312
:1025F8002F923F924F925F926F927F928F929F920B
:10260800AF92BF92CF92DF92EF92FF920F931F93F8
:10261800CF93DF93CDB7DEB7CA1BDB0B0FB6F894A9
:08262800DEBF0FBECDBF099417
:10263000CF93DF930F92CDB7DEB78983000080EC94
:1026400090E0FC018081882F90E080729927892B8F
:10265000B1F386EC90E02981FC01208300000F900B
:06266000DF91CF91089507
:102666002A88398848885F846E847D848C849B841C
:10267600AA84B984C884DF80EE80FD800C811B812A
:10268600AA81B981CE0FD11D0FB6F894DEBF0FBE59
:06269600CDBFED01089527
:10269C00A2E0B0E0E4E5F3E10C940A138C015A8358
:1026AC004983AE014F5F5F4F0E94A610F801208155
:1026BC0024FF02C08FEF9FEF2296E4E00C944113AD
:1026CC0097FB072E16F4009407D077FD09D00E94D3
:1026DC007A1307FC05D03EF4909581959F4F089591
:0826EC00709561957F4F089580
:1026F400AA1BBB1B51E107C0AA1FBB1FA617B70724
:1027040010F0A61BB70B881F991F5A95A9F780953F
:082714009095BC01CD01089570
:10271C00A0E0B0E0E4E9F3E10C940C139E01255F1A
:10272C003F4F49855A856F8178858D819E810E94A6
:08273C003310E2E00C9443139A
:10274400092E0394000C11F4882352F0BB0F40F4BB
:10275400BF2B11F460FF04C06F5F7F4F8F4F9F4FFB
:022764000895D6
:10276600FC01AF014F5F5F4F2081222311F0FA0178
:0C277600F8CF9F01281B390BC901089502
:10278200CF93DF93CDB7DEB78CEB90E024E9FC0169
:0A27920020830000DF91CF9108952D
:10279C00EC010E9422140E942114CE010E942314E9
:0627AC00CE010E941F1483
:1027B2009C01215631092A31310510F48F75992770
:0227C200089578
:1027C4009C01215431092A31310508F480620895AD
:0E27D4000E943C116894B1110C9400140895F9
:0E27E20000240A941616170618060906089514
:0E27F00000240A941216130614060506089516
:0E27FE00E894BB2766277727CB0197F908954B
:0C280C0097F99F6780E870E060E0089595
:0A2818000E94391208F481E00895CF
:0A2822000E94391208F48FEF0895A8
:08282C000E94C30A0C94A213E0
:062834009FEF80EC089507
:04283A000C940000FA
:04283E000E94710083
:022842000895F7
:022844000895F5
:022846000895F3
:1028480053544152545F434F4E46494700535441F5
:1028580052545F494D5500494D555F53454E445FAD
:1028680052455100524541445F494D550050575219
:102878005F494E495400554E4954535F494E495497
:10288800005374617274696E672075702E2E2E0A5B
:102898000D0047657474696E67206E6577207A65E8
:1028A800726F2E2E2E0D0A005A65726F20526561C6
:1028B80064696E673A20583A20256420593A2025E1
:1028C80064205A3A2025640D0A00583A20256420CD
:0E28D800593A202564205A3A2025640D0A0042
:1028E60068076C094C836A9074A07AC00080688877
:0628F60000846C820081E9
:0728FC00286E756C6C2900C9
:06290300286E696C29003A
:00000001FF
