:100000000C9449000C94260A0C94260A0C94260A97
:100010000C94260A0C94260A0C94260A0C94260AA0
:100020000C94260A0C94260A0C94260A0C94260A90
:100030000C94260A0C94260A0C94260A0C94260A80
:100040000C94260A0C94260A0C94260A0C94260A70
:100050000C94260A0C94260A0C94260A0C94260A60
:100060000C94260A0C94260A010001028001020168
:10007000AD00145A01AD01ED8001ED020A00150535
:10008000020A0216800216021C001522021C021E21
:10009000800011241FBECFEFD8E0DEBFCDBFE8E661
:1000A000F0E040E017C0B591A591359125910591FB
:1000B00007FD0CC095918591EF01F92FE82F059070
:1000C0000D92A217B307D9F7FE0104C01D92A21723
:1000D000B307E1F7E139F40731F70E945F030C94AD
:0600E000F809F894FFCFBF
:1000E600AEE0B0E0E9E7F0E00C947F094C016B016B
:1000F6001A8219828FEF9FEF9C838B831E821D824B
:1001060058874F833A872987A12CB12CD6016D9049
:100116007C90F301EA0DFB1D808181110FC0D60191
:10012600ED93FC938081853209F0D3C13F01BFEF87
:100136006B1A7B0AF6017182608219C0853279F3E7
:10014600B401082E000C990B0E9405064FEFA41A65
:10015600B40ADCCF8C32ACF08D32F9F489819A8105
:1001660081609A8389833196D601ED93FC93D601FB
:10017600ED91FC9180818B3269F789819A81846047
:10018600F0CF803221F489819A818860EACF833268
:1001960051F489819A818061E4CF803321F4898189
:1001A6009A818260DECFB701C6010E94CC079E838A
:1001B6008D8397FF0BC029813A81B1E02B273A83C3
:1001C60029839195819591099E838D8389819A8151
:1001D60080FF03C08D7F9A838983D601ED91FC91C0
:1001E600119780818E3249F43196ED93FC93B701D5
:1001F600C6010E94CC079C838B83C6010E94C90856
:10020600582ED601ED91FC918081082E000C990B99
:100216000E941E0A893609F443C084F4833609F421
:1002260002C134F4853209F427C18136E1F030C1C8
:100236008436B1F188360CF4D9C02AC1803709F466
:100246009AC03CF48E3609F4BCC08F3609F461C0FE
:100256001FC1853709F440C0883709F476C0833753
:1002660009F016C1F3C0652D70E0A701CE010B960B
:100276000E940000892B09F426C1D601ED91FC915C
:100286001197CF0101968D939C932081AE01455F16
:100296005F4FBE016F5F7F4FC4010E94000010C117
:1002A600652D70E0970141E050E0CE010B960E946B
:1002B6007D04892B09F407C1F6018081918101969D
:1002C60091838083AE01455F5F4FBE016F5F7F4FB5
:1002D600C4010E940B04F4C0652D70E0970140E054
:1002E60050E0CE010B960E947D04892B09F4EBC0E9
:1002F600D6018D919C91119701968D939C93AE0199
:10030600455F5F4FBE016F5F7F4FC4010E94980635
:10031600D7C0652D70E0970140E050E0CE010B9606
:100326000E947D04892B09F4CEC0F601808191815B
:10033600019691838083AE01455F5F4FBE016F5F7B
:100346007F4FC4010E94AC05BBC0652D70E09701CC
:1003560040E050E0CE010B960E947D04892B09F403
:10036600B2C0D601ED91FC911197CF0101968D9304
:100376009C9320811CC0970140E050E060EF70E044
:10038600CE010B960E947D04892B09F49CC0F601D0
:10039600808191810196918380838B859C85892BB1
:1003A60029F420E030E046E152E084C028E7AE01BF
:1003B600455F5F4FBE016F5F7F4FC4010E947102B0
:1003C6007FC0A501400F511F652D70E09701CE013A
:1003D6000B960E940000892B09F475C0D6018D91F9
:1003E6009C91119701968D939C9373C0652D70E037
:1003F600A701CE010B960E940000892B09F463C069
:10040600D601ED91FC911197CF0101968D939C93A6
:100416002081AE01455F5F4FBE016F5F7F4FC40114
:100426000E9400004DC0B0E85B124DC0F60180810D
:100436009181019691838083D701ED91FC9111976B
:10044600CF0102968D939C93808120C0B0E85B1209
:100456003AC0F60180819181019691838083D7010C
:10046600ED91FC911197CF0102968D939C9340815B
:10047600518120E030E01EC0B0E85B1224C0F601D6
:10048600208131812F5F3F4F318320838B870DC0C1
:1004960085E28B87D6016D927C921A8219821E8222
:1004A6001D828FEF9FEF9C838B8321E030E0AE01AE
:1004B600455F5F4FBE016F5F7F4FC4010E94FA0721
:1004C6008A0D9B1D07C0F60180819181019691835B
:0C04D6008083C5012E96EFE00C949B097A
:1004E200AFE0B0E0E7E7F2E00C947C091C016B019D
:1004F2005A8349832B83FB01828193818480958077
:1005020000811181A680B78097FD02C00D7F02C0D5
:1005120081E090E0E981FA814080518062807380BD
:100522009801207133273D832C83740104FF08C096
:10053200411451046104710419F032E0E31AF10824
:10054200F801E870FF27FF83EE8303FF03C0F1E0A9
:10055200EF1AF108F6010084F185E02D3197FF874B
:10056200EE87EA0DFB1D10829C012E193F09398787
:100572002887C801827099279B878A87EB818E2FF3
:10058200EE0F990B9C01215431093D872C872E8552
:100592003F852230310530F48C819D81892B09F011
:1005A20042C05CC0411451046104710461F18E8542
:1005B2009F8501979F878E87C2018F7099278A3006
:1005C200910514F4C09602C0895A9F4FEC85FD85AF
:1005D2007A9748F49C012062215631092A3131056B
:1005E20010F40E940D0AEE85FF85EA0DFB1D808343
:1005F200F1E0EF1AF10884E07694679457944794F7
:100602008A95D1F7C4CF888599858E0D9F1D1816BE
:1006120019066CF21E141F040CF0BECFEA85FB858E
:10062200EF2B29F6B9CFE981FA8180819181A281EC
:10063200B381892B8A2B8B2B89F0EE85FF85EA0DFE
:10064200FB1D31972B8120838E859F8502979F8783
:100652008E87FC01EA0DFB1D80E38083EE81FF8122
:10066200EF2B59F02E853F85215031093F872E8788
:10067200F901EA0DFB1D80E28083F6014085518578
:10068200415051092E853F85421B530BB9016A0D1A
:100692007B1D9401C1010E945F079C01F1018081D1
:1006A200918190FF06C0F6018281938182179307A0
:0C06B2000CF4C9012F96E2E10C949809A9
:1006BE002FEF83ED90E3215080409040E1F700C092
:1006CE00000087E690E00E94ED0983E491E00E942D
:1006DE00240861E082E00E9468080E9460096CE1D3
:1006EE0072E080E192E00E9408092FEF80E792E02D
:1006FE00215080409040E1F700C0000084E591E079
:10070E000E942408C5E04CE152E06AE072E080E10C
:10071E0092E00E94DF06C150B1F7EAE0F2E0E0801D
:10072E00F180C280D380A480B580882799278A194A
:10073E009B099F938F93882799278C199D099F93C7
:10074E008F93882799278E199F099F938F938AE6F7
:10075E0091E09F938F931F9280E48F938DEA91E0A7
:10076E009F938F930E94CB098DEA91E00E942408FB
:10077E008CE891E00E9424088DB79EB70C960FB6B8
:10078E00F8949EBF0FBE8DBF09E911E068949924BD
:10079E0096F8CDEAD1E04CE152E06AE072E080E1F9
:1007AE0092E00E94DF06EAE0F2E0848195818A19E8
:1007BE009B099F938F93828193818C199D099F939F
:1007CE008F93808191818E199F099F938F931F9391
:1007DE000F931F929F92DF93CF930E94CB09CE016E
:1007EE000E9424088FEF91EE24E08150904020402B
:1007FE00E1F700C000008DB79EB70C960FB6F894C7
:08080E009EBF0FBE8DBFC7CFD6
:10081600A2E0B0E0E1E1F4E00C947C093C016B015C
:10082600FB0122813381A480B580808191819A83E6
:10083600898386809780FA012080318042805380A8
:10084600B201A10157FE07C044275527BA01421934
:1008560053096409750937FD03C08D7F9A8389831F
:10086600950157FC05C0898182FD02C083FF02C045
:1008760021503109CE0101967C010AE010E0C60143
:100886000E94E50457FC03C0298122FF0AC0019794
:10089600F401E80FF91F57FC02C02BE209C02DE254
:1008A60007C023FF06C00197F401E80FF91F20E2F5
:1008B600208309811A81F6014085518541505109ED
:1008C600481B590BB401680F791F9501C3010E949B
:1008D6005F079C01F3018081918190FF06C0F601BC
:1008E60082819381821793070CF4C9012296E2E173
:0408F6000C949809BD
:1008FA00CF93DF93DC01F90168387105F1F05CF4FC
:10090A006138710561F164387105A1F160387105CA
:10091A0009F051C02FC0603C710509F441C0603F25
:10092A007105F1F1603A710509F045C0C081D181C4
:10093A00CE0102969183808325C0C081D181CE01E8
:10094A00029691838083452B39F04881042E000C4E
:10095A00550B660B770B1CC0488150E029C0C0813B
:10096A00D181CE01049691838083488159816A811D
:10097A007B810EC0C081D181CE0102969183808392
:10098A00452BA1F048815981052E000C660B770B87
:10099A004D935D936D937C93139781E090E00DC026
:1009AA00C081D181CE010296918380834881598189
:1009BA0060E070E0EDCF80E090E0DF91CF910895A4
:1009CA00A0E0B0E0EBEEF4E00C947E09DC01280133
:1009DA001696AD90BC901797F70180819181129677
:1009EA00ED91FC9113971896CD91DC911997219767
:1009FA00F7FF02C0E1E0F0E0CA0DDB1D18826901D1
:100A0A00A1E0B0E08F01021B130B4C01F2E08F2230
:100A1A009924052C000C66087708CE018A199B09CF
:100A2A00CA15DB0519F1411551056105710589F0F2
:100A3A00CB01BA01A30192010E944608CA01A62F5E
:100A4A00B72F605D6A9341E0C41AD108A901BC01BD
:100A5A00E4CF98012C0D3D1D121613064CF31C14FD
:100A6A001D0434F48114910419F702C080E090E067
:100A7A00AB2B31F4F701208131812F7E3183208322
:0A0A8A00CDB7DEB7E0E10C949A0945
:100A9400EF92FF920F931F93CF93DF93082F7B0165
:100AA400142F0E9426099C01009709F04BC0802F47
:100AB400880F81600E94E908009709F044C0812FE3
:100AC40090E0019718161906ECF4D701AC014E0D0D
:100AD4005F1DECEBF0E094EC29EB30E06BEB70E0A5
:100AE400908380818823ECF7E9018881887F8035B1
:100AF40019F08881887F02C0EB0188818D934A17A1
:100B04005B0771F7812F90E00197E701C80FD91FA8
:100B140084E88093BC00ECEBF0E080818823ECF760
:100B24008091B900887F883521F08091B900887F51
:100B340002C08091BB00888384E98093BC0080E07C
:100B440090E001C0932FDF91CF911F910F91FF90FF
:040B5400EF90089581
:100B5800A2E0B0E0E2EBF5E00C9480094C016B01F7
:100B6800FB012281338164807580808191819A8321
:100B78008983A680B78037FD03C08D7F9A838983D8
:100B8800FA014081518162817381CE0101967C0115
:100B980008E010E09301C6010E94E504298124FFC2
:100BA80006C00197F501E80FF91F20E3208329818A
:100BB80023FF06C00197F501E80FF91F20E2208303
:100BC80009811A81F6014085518541505109481B18
:100BD800590BB501680F791F9301C4010E945F0783
:100BE8009C01F4018081918190FF06C0F601828109
:100BF8009381821793070CF4C9012296EEE00C94B6
:020C08009C0945
:100C0A000F931F93CF93DF93DB01109719F48FEFA4
:100C1A009FEF3DC02D913C91119730FF25C016964C
:100C2A004D915C91179714962D913C911597421707
:100C3A00530778F41296ED91FC91139780831296DC
:100C4A002D913C9113972F5F3F4F13963C932E9310
:100C5A00129716962D913C9117972F5F3F4F179633
:100C6A003C932E93169713C01C96ED91FC911D97F9
:100C7A00309769F2EB01092F182F0995892B39F65C
:100C8A008E819F8101969F838E83812F902FDF9182
:080C9A00CF911F910F91089505
:100CA200EF92FF921F93CF93DF93D82F7B01C42F34
:100CB200122F0E9426090097A1F58D2F880F0E94FE
:100CC200E908009771F5CC2311F1D701B7016C0F38
:100CD200711D2BEB30E0ECEBF0E044E80F2EF9EB6A
:100CE200EF2EF12CF02D8D91E901888340838081D4
:100CF2008823ECF7E7018881887F883229F0888190
:100D0200887F90E0009769F46A177B0761F71111F9
:100D120006C084E98093BC0080E090E002C080E0DD
:0E0D220090E0DF91CF911F91FF90EF90089528
:100D3000A2E0B0E0EEE9F6E00C9480095C016B0102
:100D4000FB012281338184809580808191819A8307
:100D500089836680778037FD03C08D7F9A8389837E
:100D6000FA014081518162817381CE0101967C013B
:100D70000AE010E09401C6010E94E50409811A818D
:100D8000F6014085518541505109481B590BB3016B
:100D9000680F791F9401C5010E945F079C01F5014E
:100DA0008081918190FF06C0F60182819381821734
:0E0DB00093070CF4C9012296EEE00C949C0906
:100DBE00EF92FF920F931F93CF93DF93EC018B0172
:100DCE007A018AE1888320E041E0BE0188E20E9438
:100DDE005106F7019183808369E171E0C7010E949A
:100DEE00030A46E0BE0188E20E944A05F70191839C
:100DFE00808366E271E0C7010E94030A898190E058
:100E0E00982F88272881822BF801918380838B81EC
:100E1E0090E0982F88272A81822B938382838D815D
:100E2E0090E0982F88272C81822B95838483DF91E5
:0C0E3E00CF911F910F91FF90EF9008954D
:100E4A00A0E1B0E0EBE2F7E00C948809FB01BA01FB
:100E5A00AE014F5F5F4F7A0140E1D7011D924A957B
:100E6A00E9F742E051E05A8349839C838B83F7FF79
:100E7A0009C08FE490E090930101809300018FEF05
:100E8A009FEF14C0A9018C013197FE83ED83C7013E
:100E9A000E94B3094F8158852D813E81421753071D
:100EAA0008F49A01F801E20FF31F10826096E6E057
:040EBA000C94A409E7
:100EBE00A0E0B0E0E5E6F7E00C9482096C015B017E
:100ECE007A01E901480181E08822992400FD03C0DE
:100EDE004217530750F0A701B501C6010E944309FE
:100EEE00EC16FD0610F0C70117C08E010E191F0972
:100EFE000115110541F0B60180E290E00E94050651
:100F0E0001501109F5CF8114910429F4A701B501FF
:100F1E00C6010E944309CE01CDB7DEB7ECE00C94BA
:020F2E009E091A
:100F3000A2E8B0E0EEE9F7E00C9482095C014A0116
:100F40007A836983C12CD12CE981FA81808188233D
:100F5000E9F07401860120E830E0AE014D5F5F4F9B
:100F6000BE016F5F7F4FC5010E9473008C0D9D1DF8
:100F70008C159D054CF48FE490E0909301018093D3
:100F800000018FEF9FEF03C06C01DECFC601CE578B
:080F9000DF4FECE00C949E0918
:100F9800DC01ED91FC91119780818A3221F080E08B
:100FA80090E03AE00EC03196ED93FC93DB01ED91B1
:100FB800FC911197CF0102968D939C93808191812A
:100FC8000895ED91FC911197208120532A3068F4FF
:100FD800389FA001399F500D1124CA01820F911D1D
:0C0FE80031961196FC93EE93ECCF089527
:100FF400A0E0B0E0E0E0F8E00C9484097C01FB019F
:10100400EA01C901A280B380C480D5800081118126
:10101400209711F4C3E0D2E0009719F4CE010E94A6
:10102400DF09B7FC04C0A816B90608F4C501960187
:10103400AC01BE01C7010E945F07CDB7DEB7EAE08D
:041044000C94A0095F
:10104800EF92FF920F931F93CF93DF938C017C0154
:10105800C0E0D0E006C0F70181917F010E94160A26
:101068002196F80101900020E9F73197E01BF10B78
:10107800CE17DF0780F3DF91CF911F910F91FF907B
:04108800EF90089548
:10108C00A1E21A2EAA1BBB1BFD010DC0AA1FBB1F80
:10109C00EE1FFF1FA217B307E407F50720F0A21BF2
:1010AC00B30BE40BF50B661F771F881F991F1A945F
:1010BC0069F760957095809590959B01AC01BD0189
:0410CC00CF010895B3
:1010D00097B1906397B9662321F098B1906398B95E
:1010E00003C098B19F7C98B997B19F7C97B9813024
:1010F00041F018F0823049F0089588E48093B800F8
:10110000089588E18093B80008958CE08093B8003A
:02111000089540
:101112000F931F93CF93DF93E901FC016083418317
:10112200EFE3FCE93197F1F700C0000020E042E074
:10113200BC0188E20E945106F80191838083BE01BE
:10114200C8010E94030ADF91CF911F910F91089568
:10115200CF93DF93EB012DE3FC012083118220E08A
:1011620042E0BC0188E20E9451069983888362E0D2
:1011720071E0CE010E94030AFFEF29EF80E0F150F7
:1011820020408040E1F700C00000DF91CF91089538
:10119200CF93DF93EC0190E0E92FF0E0EE0FFF1F19
:1011A200E351FE4F8081811102C081810EC0A8816E
:1011B200B9812C91821305C091811196B983A883BC
:1011C20001C09F5F9B3040F3892FDF91CF9108953B
:1011D2008093BB0084E88093BC00ECEBF0E080815C
:1011E2008823ECF78091B900887F883151F0809193
:1011F200B900887F803441F08091B900887F90E007
:0E120200089580E090E0089580E090E0089567
:10121000CF93DF93EB012DE3FC01208328E02183B2
:1012200020E042E0BC0188E20E9451069983888355
:101230006FE071E0CE010E94030A8FE59DE6019701
:0C124000F1F700C00000DF91CF9108958D
:10124C0084EA8093BC00ECEBF0E080818823ECF71F
:10125C008091B900887F883051F08091B900887FE7
:10126C00803141F08091B900887F90E0089580E052
:0A127C0090E0089580E090E00895EE
:10128600A0E0B0E0E9E4F9E00C9486096C01EB011A
:101296008A017B01E40EF51ECE15DF0541F089912A
:1012A600B601082E000C990B0E940506F5CFC80161
:0A12B600CDB7DEB7E8E00C94A20902
:1012C0000F931F930CE112E02FE231E040E06EE358
:1012D00080E192E00E948908B80180E192E00E94DA
:1012E000A90828E331E040E06BE380E192E00E944E
:0812F00089081F910F91089578
:1012F8002F923F924F925F926F927F928F929F921E
:10130800AF92BF92CF92DF92EF92FF920F931F930B
:10131800CF93DF93CDB7DEB7CA1BDB0B0FB6F894BC
:08132800DEBF0FBECDBF09942A
:101330002A88398848885F846E847D848C849B8465
:10134000AA84B984C884DF80EE80FD800C811B8173
:10135000AA81B981CE0FD11D0FB6F894DEBF0FBEA2
:06136000CDBFED01089570
:10136600A2E0B0E0E9EBF9E00C948A098C015A831B
:101376004983AE014F5F5F4F0E949807F8012081B5
:1013860024FF02C08FEF9FEF2296E4E00C94A6099B
:10139600A0E0B0E0E1EDF9E00C948C099E01255F38
:1013A6003F4F49855A856F8178858D819E810E9440
:0813B6002507E2E00C94A809F0
:1013BE00FC01AF014F5F5F4F2081222311F0FA0134
:0C13CE00F8CF9F01281B390BC9010895BE
:1013DA009093C5008093C40088E18093C1008EE099
:0613EA008093C20008958B
:1013F000EC010E942B0A0E942A0ACE010E942C0AAC
:06140000CE010E94280A43
:10140600FC0180819181892B21F0CB010E94240867
:04141600FFCF089567
:10141A009C01215631092A31310510F48F7599271B
:02142A00089523
:10142C00E0ECF0E0908195FFFDCF8093C60008952D
:10143C009C01215431092A31310508F48062089548
:04144C000C940000FC
:041450000E94710085
:021454000895F9
:021456000895F7
:021458000895F5
:10145A0053544152545F434F4E46494700535441F7
:10146A0052545F494D5500494D555F53454E445FAF
:10147A0052455100524541445F494D55005057521B
:10148A005F494E495400554E4954535F494E495499
:10149A00005374617274696E672075702E2E2E0A5D
:1014AA000D0047657474696E67206E6577207A65EA
:1014BA00726F2E2E2E0D0A005A65726F20526561C8
:1014CA0064696E673A20583A20256420593A2025E3
:1014DA0064205A3A2025640D0A0052656164696ED7
:1014EA00672E2E2E0D0A00583A20256420593A20DC
:0B14FA002564205A3A2025640D0A00EA
:1015050068076C094C836A9074A07AC0008068886B
:0615150000846C820081DD
:07151B00286E756C6C2900BD
:06152200286E696C29002F
:00000001FF
